{
  "_format": "hh-sol-artifact-1",
  "contractName": "ExampleNFT",
  "sourceName": "contracts/NFTGAME.sol",
  "abi": [
    {
      "inputs": [],
      "stateMutability": "nonpayable",
      "type": "constructor"
    },
    {
      "anonymous": false,
      "inputs": [
        {
          "indexed": true,
          "internalType": "address",
          "name": "owner",
          "type": "address"
        },
        {
          "indexed": true,
          "internalType": "address",
          "name": "approved",
          "type": "address"
        },
        {
          "indexed": true,
          "internalType": "uint256",
          "name": "tokenId",
          "type": "uint256"
        }
      ],
      "name": "Approval",
      "type": "event"
    },
    {
      "anonymous": false,
      "inputs": [
        {
          "indexed": true,
          "internalType": "address",
          "name": "owner",
          "type": "address"
        },
        {
          "indexed": true,
          "internalType": "address",
          "name": "operator",
          "type": "address"
        },
        {
          "indexed": false,
          "internalType": "bool",
          "name": "approved",
          "type": "bool"
        }
      ],
      "name": "ApprovalForAll",
      "type": "event"
    },
    {
      "anonymous": false,
      "inputs": [
        {
          "indexed": true,
          "internalType": "address",
          "name": "previousOwner",
          "type": "address"
        },
        {
          "indexed": true,
          "internalType": "address",
          "name": "newOwner",
          "type": "address"
        }
      ],
      "name": "OwnershipTransferred",
      "type": "event"
    },
    {
      "anonymous": false,
      "inputs": [
        {
          "indexed": true,
          "internalType": "address",
          "name": "from",
          "type": "address"
        },
        {
          "indexed": true,
          "internalType": "address",
          "name": "to",
          "type": "address"
        },
        {
          "indexed": true,
          "internalType": "uint256",
          "name": "tokenId",
          "type": "uint256"
        }
      ],
      "name": "Transfer",
      "type": "event"
    },
    {
      "inputs": [
        {
          "internalType": "address",
          "name": "to",
          "type": "address"
        },
        {
          "internalType": "uint256",
          "name": "tokenId",
          "type": "uint256"
        }
      ],
      "name": "approve",
      "outputs": [],
      "stateMutability": "nonpayable",
      "type": "function"
    },
    {
      "inputs": [
        {
          "internalType": "address",
          "name": "owner",
          "type": "address"
        }
      ],
      "name": "balanceOf",
      "outputs": [
        {
          "internalType": "uint256",
          "name": "",
          "type": "uint256"
        }
      ],
      "stateMutability": "view",
      "type": "function"
    },
    {
      "inputs": [
        {
          "internalType": "address",
          "name": "receiver",
          "type": "address"
        },
        {
          "internalType": "string",
          "name": "hash",
          "type": "string"
        },
        {
          "internalType": "string",
          "name": "metadata",
          "type": "string"
        }
      ],
      "name": "createNFT",
      "outputs": [
        {
          "internalType": "uint256",
          "name": "",
          "type": "uint256"
        }
      ],
      "stateMutability": "nonpayable",
      "type": "function"
    },
    {
      "inputs": [
        {
          "internalType": "uint256",
          "name": "tokenId",
          "type": "uint256"
        }
      ],
      "name": "getApproved",
      "outputs": [
        {
          "internalType": "address",
          "name": "",
          "type": "address"
        }
      ],
      "stateMutability": "view",
      "type": "function"
    },
    {
      "inputs": [
        {
          "internalType": "address",
          "name": "owner",
          "type": "address"
        },
        {
          "internalType": "address",
          "name": "operator",
          "type": "address"
        }
      ],
      "name": "isApprovedForAll",
      "outputs": [
        {
          "internalType": "bool",
          "name": "",
          "type": "bool"
        }
      ],
      "stateMutability": "view",
      "type": "function"
    },
    {
      "inputs": [],
      "name": "name",
      "outputs": [
        {
          "internalType": "string",
          "name": "",
          "type": "string"
        }
      ],
      "stateMutability": "view",
      "type": "function"
    },
    {
      "inputs": [],
      "name": "owner",
      "outputs": [
        {
          "internalType": "address",
          "name": "",
          "type": "address"
        }
      ],
      "stateMutability": "view",
      "type": "function"
    },
    {
      "inputs": [
        {
          "internalType": "uint256",
          "name": "tokenId",
          "type": "uint256"
        }
      ],
      "name": "ownerOf",
      "outputs": [
        {
          "internalType": "address",
          "name": "",
          "type": "address"
        }
      ],
      "stateMutability": "view",
      "type": "function"
    },
    {
      "inputs": [],
      "name": "renounceOwnership",
      "outputs": [],
      "stateMutability": "nonpayable",
      "type": "function"
    },
    {
      "inputs": [
        {
          "internalType": "address",
          "name": "from",
          "type": "address"
        },
        {
          "internalType": "address",
          "name": "to",
          "type": "address"
        },
        {
          "internalType": "uint256",
          "name": "tokenId",
          "type": "uint256"
        }
      ],
      "name": "safeTransferFrom",
      "outputs": [],
      "stateMutability": "nonpayable",
      "type": "function"
    },
    {
      "inputs": [
        {
          "internalType": "address",
          "name": "from",
          "type": "address"
        },
        {
          "internalType": "address",
          "name": "to",
          "type": "address"
        },
        {
          "internalType": "uint256",
          "name": "tokenId",
          "type": "uint256"
        },
        {
          "internalType": "bytes",
          "name": "_data",
          "type": "bytes"
        }
      ],
      "name": "safeTransferFrom",
      "outputs": [],
      "stateMutability": "nonpayable",
      "type": "function"
    },
    {
      "inputs": [
        {
          "internalType": "address",
          "name": "operator",
          "type": "address"
        },
        {
          "internalType": "bool",
          "name": "approved",
          "type": "bool"
        }
      ],
      "name": "setApprovalForAll",
      "outputs": [],
      "stateMutability": "nonpayable",
      "type": "function"
    },
    {
      "inputs": [
        {
          "internalType": "bytes4",
          "name": "interfaceId",
          "type": "bytes4"
        }
      ],
      "name": "supportsInterface",
      "outputs": [
        {
          "internalType": "bool",
          "name": "",
          "type": "bool"
        }
      ],
      "stateMutability": "view",
      "type": "function"
    },
    {
      "inputs": [],
      "name": "symbol",
      "outputs": [
        {
          "internalType": "string",
          "name": "",
          "type": "string"
        }
      ],
      "stateMutability": "view",
      "type": "function"
    },
    {
      "inputs": [
        {
          "internalType": "uint256",
          "name": "tokenId",
          "type": "uint256"
        }
      ],
      "name": "tokenURI",
      "outputs": [
        {
          "internalType": "string",
          "name": "",
          "type": "string"
        }
      ],
      "stateMutability": "view",
      "type": "function"
    },
    {
      "inputs": [
        {
          "internalType": "address",
          "name": "from",
          "type": "address"
        },
        {
          "internalType": "address",
          "name": "to",
          "type": "address"
        },
        {
          "internalType": "uint256",
          "name": "tokenId",
          "type": "uint256"
        }
      ],
      "name": "transferFrom",
      "outputs": [],
      "stateMutability": "nonpayable",
      "type": "function"
    },
    {
      "inputs": [
        {
          "internalType": "address",
          "name": "newOwner",
          "type": "address"
        }
      ],
      "name": "transferOwnership",
      "outputs": [],
      "stateMutability": "nonpayable",
      "type": "function"
    }
  ],
  "bytecode": "0x60806040523480156200001157600080fd5b506040518060400160405280600781526020017f4578616d706c65000000000000000000000000000000000000000000000000008152506040518060400160405280600381526020017f434c530000000000000000000000000000000000000000000000000000000000815250816000908051906020019062000096929190620001a6565b508060019080519060200190620000af929190620001a6565b505050620000d2620000c6620000d860201b60201c565b620000e060201b60201c565b620002bb565b600033905090565b6000600760009054906101000a900473ffffffffffffffffffffffffffffffffffffffff16905081600760006101000a81548173ffffffffffffffffffffffffffffffffffffffff021916908373ffffffffffffffffffffffffffffffffffffffff1602179055508173ffffffffffffffffffffffffffffffffffffffff168173ffffffffffffffffffffffffffffffffffffffff167f8be0079c531659141344cd1fd0a4f28419497f9722a3daafe3b4186f6b6457e060405160405180910390a35050565b828054620001b49062000256565b90600052602060002090601f016020900481019282620001d8576000855562000224565b82601f10620001f357805160ff191683800117855562000224565b8280016001018555821562000224579182015b828111156200022357825182559160200191906001019062000206565b5b50905062000233919062000237565b5090565b5b808211156200025257600081600090555060010162000238565b5090565b600060028204905060018216806200026f57607f821691505b602082108114156200028657620002856200028c565b5b50919050565b7f4e487b7100000000000000000000000000000000000000000000000000000000600052602260045260246000fd5b612f7380620002cb6000396000f3fe608060405234801561001057600080fd5b506004361061010b5760003560e01c806370a08231116100a2578063a22cb46511610071578063a22cb465146102b8578063b88d4fde146102d4578063c87b56dd146102f0578063e985e9c514610320578063f2fde38b146103505761010b565b806370a0823114610242578063715018a6146102725780638da5cb5b1461027c57806395d89b411461029a5761010b565b80630b564a7c116100de5780630b564a7c146101aa57806323b872dd146101da57806342842e0e146101f65780636352211e146102125761010b565b806301ffc9a71461011057806306fdde0314610140578063081812fc1461015e578063095ea7b31461018e575b600080fd5b61012a6004803603810190610125919061200a565b61036c565b604051610137919061288b565b60405180910390f35b61014861044e565b60405161015591906128a6565b60405180910390f35b6101786004803603810190610173919061205c565b6104e0565b6040516101859190612824565b60405180910390f35b6101a860048036038101906101a39190611fce565b610565565b005b6101c460048036038101906101bf9190611f4f565b61067d565b6040516101d19190612b08565b60405180910390f35b6101f460048036038101906101ef9190611e49565b6107a6565b005b610210600480360381019061020b9190611e49565b610806565b005b61022c6004803603810190610227919061205c565b610826565b6040516102399190612824565b60405180910390f35b61025c60048036038101906102579190611de4565b6108d8565b6040516102699190612b08565b60405180910390f35b61027a610990565b005b610284610a18565b6040516102919190612824565b60405180910390f35b6102a2610a42565b6040516102af91906128a6565b60405180910390f35b6102d260048036038101906102cd9190611f13565b610ad4565b005b6102ee60048036038101906102e99190611e98565b610c55565b005b61030a6004803603810190610305919061205c565b610cb7565b60405161031791906128a6565b60405180910390f35b61033a60048036038101906103359190611e0d565b610e09565b604051610347919061288b565b60405180910390f35b61036a60048036038101906103659190611de4565b610e9d565b005b60007f80ac58cd000000000000000000000000000000000000000000000000000000007bffffffffffffffffffffffffffffffffffffffffffffffffffffffff1916827bffffffffffffffffffffffffffffffffffffffffffffffffffffffff1916148061043757507f5b5e139f000000000000000000000000000000000000000000000000000000007bffffffffffffffffffffffffffffffffffffffffffffffffffffffff1916827bffffffffffffffffffffffffffffffffffffffffffffffffffffffff1916145b80610447575061044682610f95565b5b9050919050565b60606000805461045d90612d68565b80601f016020809104026020016040519081016040528092919081815260200182805461048990612d68565b80156104d65780601f106104ab576101008083540402835291602001916104d6565b820191906000526020600020905b8154815290600101906020018083116104b957829003601f168201915b5050505050905090565b60006104eb82610fff565b61052a576040517f08c379a000000000000000000000000000000000000000000000000000000000815260040161052190612a48565b60405180910390fd5b6004600083815260200190815260200160002060009054906101000a900473ffffffffffffffffffffffffffffffffffffffff169050919050565b600061057082610826565b90508073ffffffffffffffffffffffffffffffffffffffff168373ffffffffffffffffffffffffffffffffffffffff1614156105e1576040517f08c379a00000000000000000000000000000000000000000000000000000000081526004016105d890612ac8565b60405180910390fd5b8073ffffffffffffffffffffffffffffffffffffffff1661060061106b565b73ffffffffffffffffffffffffffffffffffffffff16148061062f575061062e8161062961106b565b610e09565b5b61066e576040517f08c379a000000000000000000000000000000000000000000000000000000000815260040161066590612988565b60405180910390fd5b6106788383611073565b505050565b600061068761106b565b73ffffffffffffffffffffffffffffffffffffffff166106a5610a18565b73ffffffffffffffffffffffffffffffffffffffff16146106fb576040517f08c379a00000000000000000000000000000000000000000000000000000000081526004016106f290612a68565b60405180910390fd5b600160098460405161070d91906127e9565b908152602001604051809103902060009054906101000a900460ff1660ff16141561073757600080fd5b600160098460405161074991906127e9565b908152602001604051809103902060006101000a81548160ff021916908360ff160217905550610779600861112c565b60006107856008611142565b90506107918582611150565b61079b818461131e565b809150509392505050565b6107b76107b161106b565b82611392565b6107f6576040517f08c379a00000000000000000000000000000000000000000000000000000000081526004016107ed90612ae8565b60405180910390fd5b610801838383611470565b505050565b61082183838360405180602001604052806000815250610c55565b505050565b6000806002600084815260200190815260200160002060009054906101000a900473ffffffffffffffffffffffffffffffffffffffff169050600073ffffffffffffffffffffffffffffffffffffffff168173ffffffffffffffffffffffffffffffffffffffff1614156108cf576040517f08c379a00000000000000000000000000000000000000000000000000000000081526004016108c6906129c8565b60405180910390fd5b80915050919050565b60008073ffffffffffffffffffffffffffffffffffffffff168273ffffffffffffffffffffffffffffffffffffffff161415610949576040517f08c379a0000000000000000000000000000000000000000000000000000000008152600401610940906129a8565b60405180910390fd5b600360008373ffffffffffffffffffffffffffffffffffffffff1673ffffffffffffffffffffffffffffffffffffffff168152602001908152602001600020549050919050565b61099861106b565b73ffffffffffffffffffffffffffffffffffffffff166109b6610a18565b73ffffffffffffffffffffffffffffffffffffffff1614610a0c576040517f08c379a0000000000000000000000000000000000000000000000000000000008152600401610a0390612a68565b60405180910390fd5b610a1660006116cc565b565b6000600760009054906101000a900473ffffffffffffffffffffffffffffffffffffffff16905090565b606060018054610a5190612d68565b80601f0160208091040260200160405190810160405280929190818152602001828054610a7d90612d68565b8015610aca5780601f10610a9f57610100808354040283529160200191610aca565b820191906000526020600020905b815481529060010190602001808311610aad57829003601f168201915b5050505050905090565b610adc61106b565b73ffffffffffffffffffffffffffffffffffffffff168273ffffffffffffffffffffffffffffffffffffffff161415610b4a576040517f08c379a0000000000000000000000000000000000000000000000000000000008152600401610b4190612948565b60405180910390fd5b8060056000610b5761106b565b73ffffffffffffffffffffffffffffffffffffffff1673ffffffffffffffffffffffffffffffffffffffff16815260200190815260200160002060008473ffffffffffffffffffffffffffffffffffffffff1673ffffffffffffffffffffffffffffffffffffffff16815260200190815260200160002060006101000a81548160ff0219169083151502179055508173ffffffffffffffffffffffffffffffffffffffff16610c0461106b565b73ffffffffffffffffffffffffffffffffffffffff167f17307eab39ab6107e8899845ad3d59bd9653f200f220920489ca2b5937696c3183604051610c49919061288b565b60405180910390a35050565b610c66610c6061106b565b83611392565b610ca5576040517f08c379a0000000000000000000000000000000000000000000000000000000008152600401610c9c90612ae8565b60405180910390fd5b610cb184848484611792565b50505050565b6060610cc282610fff565b610d01576040517f08c379a0000000000000000000000000000000000000000000000000000000008152600401610cf890612a28565b60405180910390fd5b6000600660008481526020019081526020016000208054610d2190612d68565b80601f0160208091040260200160405190810160405280929190818152602001828054610d4d90612d68565b8015610d9a5780601f10610d6f57610100808354040283529160200191610d9a565b820191906000526020600020905b815481529060010190602001808311610d7d57829003601f168201915b505050505090506000610dab6117ee565b9050600081511415610dc1578192505050610e04565b600082511115610df6578082604051602001610dde929190612800565b60405160208183030381529060405292505050610e04565b610dff84611805565b925050505b919050565b6000600560008473ffffffffffffffffffffffffffffffffffffffff1673ffffffffffffffffffffffffffffffffffffffff16815260200190815260200160002060008373ffffffffffffffffffffffffffffffffffffffff1673ffffffffffffffffffffffffffffffffffffffff16815260200190815260200160002060009054906101000a900460ff16905092915050565b610ea561106b565b73ffffffffffffffffffffffffffffffffffffffff16610ec3610a18565b73ffffffffffffffffffffffffffffffffffffffff1614610f19576040517f08c379a0000000000000000000000000000000000000000000000000000000008152600401610f1090612a68565b60405180910390fd5b600073ffffffffffffffffffffffffffffffffffffffff168173ffffffffffffffffffffffffffffffffffffffff161415610f89576040517f08c379a0000000000000000000000000000000000000000000000000000000008152600401610f80906128e8565b60405180910390fd5b610f92816116cc565b50565b60007f01ffc9a7000000000000000000000000000000000000000000000000000000007bffffffffffffffffffffffffffffffffffffffffffffffffffffffff1916827bffffffffffffffffffffffffffffffffffffffffffffffffffffffff1916149050919050565b60008073ffffffffffffffffffffffffffffffffffffffff166002600084815260200190815260200160002060009054906101000a900473ffffffffffffffffffffffffffffffffffffffff1673ffffffffffffffffffffffffffffffffffffffff1614159050919050565b600033905090565b816004600083815260200190815260200160002060006101000a81548173ffffffffffffffffffffffffffffffffffffffff021916908373ffffffffffffffffffffffffffffffffffffffff160217905550808273ffffffffffffffffffffffffffffffffffffffff166110e683610826565b73ffffffffffffffffffffffffffffffffffffffff167f8c5be1e5ebec7d5bd14f71427d1e84f3dd0314c0f7b2291e5b200ac8c7c3b92560405160405180910390a45050565b6001816000016000828254019250508190555050565b600081600001549050919050565b600073ffffffffffffffffffffffffffffffffffffffff168273ffffffffffffffffffffffffffffffffffffffff1614156111c0576040517f08c379a00000000000000000000000000000000000000000000000000000000081526004016111b790612a08565b60405180910390fd5b6111c981610fff565b15611209576040517f08c379a000000000000000000000000000000000000000000000000000000000815260040161120090612908565b60405180910390fd5b611215600083836118ac565b6001600360008473ffffffffffffffffffffffffffffffffffffffff1673ffffffffffffffffffffffffffffffffffffffff16815260200190815260200160002060008282546112659190612bf7565b92505081905550816002600083815260200190815260200160002060006101000a81548173ffffffffffffffffffffffffffffffffffffffff021916908373ffffffffffffffffffffffffffffffffffffffff160217905550808273ffffffffffffffffffffffffffffffffffffffff16600073ffffffffffffffffffffffffffffffffffffffff167fddf252ad1be2c89b69c2b068fc378daa952ba7f163c4a11628f55a4df523b3ef60405160405180910390a45050565b61132782610fff565b611366576040517f08c379a000000000000000000000000000000000000000000000000000000000815260040161135d906129e8565b60405180910390fd5b8060066000848152602001908152602001600020908051906020019061138d929190611c08565b505050565b600061139d82610fff565b6113dc576040517f08c379a00000000000000000000000000000000000000000000000000000000081526004016113d390612968565b60405180910390fd5b60006113e783610826565b90508073ffffffffffffffffffffffffffffffffffffffff168473ffffffffffffffffffffffffffffffffffffffff16148061145657508373ffffffffffffffffffffffffffffffffffffffff1661143e846104e0565b73ffffffffffffffffffffffffffffffffffffffff16145b8061146757506114668185610e09565b5b91505092915050565b8273ffffffffffffffffffffffffffffffffffffffff1661149082610826565b73ffffffffffffffffffffffffffffffffffffffff16146114e6576040517f08c379a00000000000000000000000000000000000000000000000000000000081526004016114dd90612a88565b60405180910390fd5b600073ffffffffffffffffffffffffffffffffffffffff168273ffffffffffffffffffffffffffffffffffffffff161415611556576040517f08c379a000000000000000000000000000000000000000000000000000000000815260040161154d90612928565b60405180910390fd5b6115618383836118ac565b61156c600082611073565b6001600360008573ffffffffffffffffffffffffffffffffffffffff1673ffffffffffffffffffffffffffffffffffffffff16815260200190815260200160002060008282546115bc9190612c7e565b925050819055506001600360008473ffffffffffffffffffffffffffffffffffffffff1673ffffffffffffffffffffffffffffffffffffffff16815260200190815260200160002060008282546116139190612bf7565b92505081905550816002600083815260200190815260200160002060006101000a81548173ffffffffffffffffffffffffffffffffffffffff021916908373ffffffffffffffffffffffffffffffffffffffff160217905550808273ffffffffffffffffffffffffffffffffffffffff168473ffffffffffffffffffffffffffffffffffffffff167fddf252ad1be2c89b69c2b068fc378daa952ba7f163c4a11628f55a4df523b3ef60405160405180910390a4505050565b6000600760009054906101000a900473ffffffffffffffffffffffffffffffffffffffff16905081600760006101000a81548173ffffffffffffffffffffffffffffffffffffffff021916908373ffffffffffffffffffffffffffffffffffffffff1602179055508173ffffffffffffffffffffffffffffffffffffffff168173ffffffffffffffffffffffffffffffffffffffff167f8be0079c531659141344cd1fd0a4f28419497f9722a3daafe3b4186f6b6457e060405160405180910390a35050565b61179d848484611470565b6117a9848484846118b1565b6117e8576040517f08c379a00000000000000000000000000000000000000000000000000000000081526004016117df906128c8565b60405180910390fd5b50505050565b606060405180602001604052806000815250905090565b606061181082610fff565b61184f576040517f08c379a000000000000000000000000000000000000000000000000000000000815260040161184690612aa8565b60405180910390fd5b60006118596117ee565b9050600081511161187957604051806020016040528060008152506118a4565b8061188384611a48565b604051602001611894929190612800565b6040516020818303038152906040525b915050919050565b505050565b60006118d28473ffffffffffffffffffffffffffffffffffffffff16611bf5565b15611a3b578373ffffffffffffffffffffffffffffffffffffffff1663150b7a026118fb61106b565b8786866040518563ffffffff1660e01b815260040161191d949392919061283f565b602060405180830381600087803b15801561193757600080fd5b505af192505050801561196857506040513d601f19601f820116820180604052508101906119659190612033565b60015b6119eb573d8060008114611998576040519150601f19603f3d011682016040523d82523d6000602084013e61199d565b606091505b506000815114156119e3576040517f08c379a00000000000000000000000000000000000000000000000000000000081526004016119da906128c8565b60405180910390fd5b805181602001fd5b63150b7a0260e01b7bffffffffffffffffffffffffffffffffffffffffffffffffffffffff1916817bffffffffffffffffffffffffffffffffffffffffffffffffffffffff191614915050611a40565b600190505b949350505050565b60606000821415611a90576040518060400160405280600181526020017f30000000000000000000000000000000000000000000000000000000000000008152509050611bf0565b600082905060005b60008214611ac2578080611aab90612d9a565b915050600a82611abb9190612c4d565b9150611a98565b60008167ffffffffffffffff811115611b04577f4e487b7100000000000000000000000000000000000000000000000000000000600052604160045260246000fd5b6040519080825280601f01601f191660200182016040528015611b365781602001600182028036833780820191505090505b5090505b60008514611be957600182611b4f9190612c7e565b9150600a85611b5e9190612de3565b6030611b6a9190612bf7565b60f81b818381518110611ba6577f4e487b7100000000000000000000000000000000000000000000000000000000600052603260045260246000fd5b60200101907effffffffffffffffffffffffffffffffffffffffffffffffffffffffffffff1916908160001a905350600a85611be29190612c4d565b9450611b3a565b8093505050505b919050565b600080823b905060008111915050919050565b828054611c1490612d68565b90600052602060002090601f016020900481019282611c365760008555611c7d565b82601f10611c4f57805160ff1916838001178555611c7d565b82800160010185558215611c7d579182015b82811115611c7c578251825591602001919060010190611c61565b5b509050611c8a9190611c8e565b5090565b5b80821115611ca7576000816000905550600101611c8f565b5090565b6000611cbe611cb984612b54565b612b23565b905082815260208101848484011115611cd657600080fd5b611ce1848285612d26565b509392505050565b6000611cfc611cf784612b84565b612b23565b905082815260208101848484011115611d1457600080fd5b611d1f848285612d26565b509392505050565b600081359050611d3681612ee1565b92915050565b600081359050611d4b81612ef8565b92915050565b600081359050611d6081612f0f565b92915050565b600081519050611d7581612f0f565b92915050565b600082601f830112611d8c57600080fd5b8135611d9c848260208601611cab565b91505092915050565b600082601f830112611db657600080fd5b8135611dc6848260208601611ce9565b91505092915050565b600081359050611dde81612f26565b92915050565b600060208284031215611df657600080fd5b6000611e0484828501611d27565b91505092915050565b60008060408385031215611e2057600080fd5b6000611e2e85828601611d27565b9250506020611e3f85828601611d27565b9150509250929050565b600080600060608486031215611e5e57600080fd5b6000611e6c86828701611d27565b9350506020611e7d86828701611d27565b9250506040611e8e86828701611dcf565b9150509250925092565b60008060008060808587031215611eae57600080fd5b6000611ebc87828801611d27565b9450506020611ecd87828801611d27565b9350506040611ede87828801611dcf565b925050606085013567ffffffffffffffff811115611efb57600080fd5b611f0787828801611d7b565b91505092959194509250565b60008060408385031215611f2657600080fd5b6000611f3485828601611d27565b9250506020611f4585828601611d3c565b9150509250929050565b600080600060608486031215611f6457600080fd5b6000611f7286828701611d27565b935050602084013567ffffffffffffffff811115611f8f57600080fd5b611f9b86828701611da5565b925050604084013567ffffffffffffffff811115611fb857600080fd5b611fc486828701611da5565b9150509250925092565b60008060408385031215611fe157600080fd5b6000611fef85828601611d27565b925050602061200085828601611dcf565b9150509250929050565b60006020828403121561201c57600080fd5b600061202a84828501611d51565b91505092915050565b60006020828403121561204557600080fd5b600061205384828501611d66565b91505092915050565b60006020828403121561206e57600080fd5b600061207c84828501611dcf565b91505092915050565b61208e81612cb2565b82525050565b61209d81612cc4565b82525050565b60006120ae82612bb4565b6120b88185612bca565b93506120c8818560208601612d35565b6120d181612ed0565b840191505092915050565b60006120e782612bbf565b6120f18185612bdb565b9350612101818560208601612d35565b61210a81612ed0565b840191505092915050565b600061212082612bbf565b61212a8185612bec565b935061213a818560208601612d35565b80840191505092915050565b6000612153603283612bdb565b91507f4552433732313a207472616e7366657220746f206e6f6e20455243373231526560008301527f63656976657220696d706c656d656e74657200000000000000000000000000006020830152604082019050919050565b60006121b9602683612bdb565b91507f4f776e61626c653a206e6577206f776e657220697320746865207a65726f206160008301527f64647265737300000000000000000000000000000000000000000000000000006020830152604082019050919050565b600061221f601c83612bdb565b91507f4552433732313a20746f6b656e20616c7265616479206d696e746564000000006000830152602082019050919050565b600061225f602483612bdb565b91507f4552433732313a207472616e7366657220746f20746865207a65726f2061646460008301527f72657373000000000000000000000000000000000000000000000000000000006020830152604082019050919050565b60006122c5601983612bdb565b91507f4552433732313a20617070726f766520746f2063616c6c6572000000000000006000830152602082019050919050565b6000612305602c83612bdb565b91507f4552433732313a206f70657261746f7220717565727920666f72206e6f6e657860008301527f697374656e7420746f6b656e00000000000000000000000000000000000000006020830152604082019050919050565b600061236b603883612bdb565b91507f4552433732313a20617070726f76652063616c6c6572206973206e6f74206f7760008301527f6e6572206e6f7220617070726f76656420666f7220616c6c00000000000000006020830152604082019050919050565b60006123d1602a83612bdb565b91507f4552433732313a2062616c616e636520717565727920666f7220746865207a6560008301527f726f2061646472657373000000000000000000000000000000000000000000006020830152604082019050919050565b6000612437602983612bdb565b91507f4552433732313a206f776e657220717565727920666f72206e6f6e657869737460008301527f656e7420746f6b656e00000000000000000000000000000000000000000000006020830152604082019050919050565b600061249d602e83612bdb565b91507f45524337323155524953746f726167653a2055524920736574206f66206e6f6e60008301527f6578697374656e7420746f6b656e0000000000000000000000000000000000006020830152604082019050919050565b6000612503602083612bdb565b91507f4552433732313a206d696e7420746f20746865207a65726f20616464726573736000830152602082019050919050565b6000612543603183612bdb565b91507f45524337323155524953746f726167653a2055524920717565727920666f722060008301527f6e6f6e6578697374656e7420746f6b656e0000000000000000000000000000006020830152604082019050919050565b60006125a9602c83612bdb565b91507f4552433732313a20617070726f76656420717565727920666f72206e6f6e657860008301527f697374656e7420746f6b656e00000000000000000000000000000000000000006020830152604082019050919050565b600061260f602083612bdb565b91507f4f776e61626c653a2063616c6c6572206973206e6f7420746865206f776e65726000830152602082019050919050565b600061264f602983612bdb565b91507f4552433732313a207472616e73666572206f6620746f6b656e2074686174206960008301527f73206e6f74206f776e00000000000000000000000000000000000000000000006020830152604082019050919050565b60006126b5602f83612bdb565b91507f4552433732314d657461646174613a2055524920717565727920666f72206e6f60008301527f6e6578697374656e7420746f6b656e00000000000000000000000000000000006020830152604082019050919050565b600061271b602183612bdb565b91507f4552433732313a20617070726f76616c20746f2063757272656e74206f776e6560008301527f72000000000000000000000000000000000000000000000000000000000000006020830152604082019050919050565b6000612781603183612bdb565b91507f4552433732313a207472616e736665722063616c6c6572206973206e6f74206f60008301527f776e6572206e6f7220617070726f7665640000000000000000000000000000006020830152604082019050919050565b6127e381612d1c565b82525050565b60006127f58284612115565b915081905092915050565b600061280c8285612115565b91506128188284612115565b91508190509392505050565b60006020820190506128396000830184612085565b92915050565b60006080820190506128546000830187612085565b6128616020830186612085565b61286e60408301856127da565b818103606083015261288081846120a3565b905095945050505050565b60006020820190506128a06000830184612094565b92915050565b600060208201905081810360008301526128c081846120dc565b905092915050565b600060208201905081810360008301526128e181612146565b9050919050565b60006020820190508181036000830152612901816121ac565b9050919050565b6000602082019050818103600083015261292181612212565b9050919050565b6000602082019050818103600083015261294181612252565b9050919050565b60006020820190508181036000830152612961816122b8565b9050919050565b60006020820190508181036000830152612981816122f8565b9050919050565b600060208201905081810360008301526129a18161235e565b9050919050565b600060208201905081810360008301526129c1816123c4565b9050919050565b600060208201905081810360008301526129e18161242a565b9050919050565b60006020820190508181036000830152612a0181612490565b9050919050565b60006020820190508181036000830152612a21816124f6565b9050919050565b60006020820190508181036000830152612a4181612536565b9050919050565b60006020820190508181036000830152612a618161259c565b9050919050565b60006020820190508181036000830152612a8181612602565b9050919050565b60006020820190508181036000830152612aa181612642565b9050919050565b60006020820190508181036000830152612ac1816126a8565b9050919050565b60006020820190508181036000830152612ae18161270e565b9050919050565b60006020820190508181036000830152612b0181612774565b9050919050565b6000602082019050612b1d60008301846127da565b92915050565b6000604051905081810181811067ffffffffffffffff82111715612b4a57612b49612ea1565b5b8060405250919050565b600067ffffffffffffffff821115612b6f57612b6e612ea1565b5b601f19601f8301169050602081019050919050565b600067ffffffffffffffff821115612b9f57612b9e612ea1565b5b601f19601f8301169050602081019050919050565b600081519050919050565b600081519050919050565b600082825260208201905092915050565b600082825260208201905092915050565b600081905092915050565b6000612c0282612d1c565b9150612c0d83612d1c565b9250827fffffffffffffffffffffffffffffffffffffffffffffffffffffffffffffffff03821115612c4257612c41612e14565b5b828201905092915050565b6000612c5882612d1c565b9150612c6383612d1c565b925082612c7357612c72612e43565b5b828204905092915050565b6000612c8982612d1c565b9150612c9483612d1c565b925082821015612ca757612ca6612e14565b5b828203905092915050565b6000612cbd82612cfc565b9050919050565b60008115159050919050565b60007fffffffff0000000000000000000000000000000000000000000000000000000082169050919050565b600073ffffffffffffffffffffffffffffffffffffffff82169050919050565b6000819050919050565b82818337600083830152505050565b60005b83811015612d53578082015181840152602081019050612d38565b83811115612d62576000848401525b50505050565b60006002820490506001821680612d8057607f821691505b60208210811415612d9457612d93612e72565b5b50919050565b6000612da582612d1c565b91507fffffffffffffffffffffffffffffffffffffffffffffffffffffffffffffffff821415612dd857612dd7612e14565b5b600182019050919050565b6000612dee82612d1c565b9150612df983612d1c565b925082612e0957612e08612e43565b5b828206905092915050565b7f4e487b7100000000000000000000000000000000000000000000000000000000600052601160045260246000fd5b7f4e487b7100000000000000000000000000000000000000000000000000000000600052601260045260246000fd5b7f4e487b7100000000000000000000000000000000000000000000000000000000600052602260045260246000fd5b7f4e487b7100000000000000000000000000000000000000000000000000000000600052604160045260246000fd5b6000601f19601f8301169050919050565b612eea81612cb2565b8114612ef557600080fd5b50565b612f0181612cc4565b8114612f0c57600080fd5b50565b612f1881612cd0565b8114612f2357600080fd5b50565b612f2f81612d1c565b8114612f3a57600080fd5b5056fea2646970667358221220d66f044564910eb7523cdb3a36d66514861f2093b7e07b143458b3158408bbd764736f6c63430008000033",
  "linkReferences": {},
  "deployedLinkReferences": {}
}